:020000040800F2
:100000000050002021020008270200082B020008EF
:100010009D020008A1020008E9020008000000009B
:100020000000000000000000000000003103000894
:100030003503000800000000390300083D030008F4
:100040004D0300084D0300084D0300084D03000850
:100050004D0300084D0300084D0300084D03000840
:100060004D0300084D0300084D0300084D03000830
:100070004D0300084D0300085D0900084D0300080A
:100080004D0300084D0300084D0300084D03000810
:100090004D0300084D0300084D0300084D03000800
:1000A0004D0300084D0300084D0300084D030008F0
:1000B0004D0300084D0300084D0300084D030008E0
:1000C0004D0300084D0300084D0300084D030008D0
:1000D0004D0300089D0B00084D0300084D03000868
:1000E0004D0300084D0300084D0300080000000008
:1000F0000000000000000000000000000000000000
:1001000000000000000000005FF808F100B583B0B7
:1001100000F0AAF9304B314A1360314A1360314B79
:10012000314A32498B4204D21168196004330432D7
:10013000F7E72A4B1A682E4B9A4200D0FEE7284B6D
:100140001A682C4B9A42F9D1234B2B4A13602B4A45
:1001500013602B4B02E000221A600433294A9342B9
:10016000F9D3254B1B6813B9244B1B6803B1FEE779
:1001700000F086F9694601A800F022F9224C234BD1
:10018000E41AA4100025AC4214DC214C214BE41AE3
:10019000A4100025AC4213DC0099019800F09CFEED
:1001A00005461D4C1D4BE41AA410002C0EDC2846FD
:1001B00000F0E2F8154B53F8253098470135E2E797
:1001C000144B53F8253098470135E3E7013C134BB6
:1001D00053F824309847E8E7BABADECA0000002096
:1001E0009801002000000020481900089C01002010
:1001F00078563412325476989C0100203C05002039
:100200009C010020400500207803000878030008C6
:1002100078030008780300087803000878030008D2
:1002200008B5FFF773FF00BEFEE71EF0040F0CBF1A
:10023000EFF30880EFF309807146414A10472DE93A
:10024000F04182B004468846124B5E6B9F6B9D6AFC
:100250001B6B13F0020F03D00E4BDB6A002B0CDB81
:100260000D4800F0B5F8CDF800803B4632462946EF
:10027000204600F009F900BEFEE74BF6AB6100F046
:100280007DF90028ECD0034B4FF00042DA6202B057
:10029000BDE8F08100ED00E0DC18000800BEFEE7DC
:1002A0001EF0040F0CBFEFF30880EFF309807146D6
:1002B000244A10472DE9F04182B004468846084B95
:1002C0005E6B9F6B9D6A074800F082F8CDF8008056
:1002D0003B4632462946204600F0D6F800BEFEE7EF
:1002E00000ED00E0EC1800081EF0040F0CBFEFF367
:1002F0000880EFF309807146134A10472DE9F04159
:1003000082B004468846084B5E6B9F6B9D6A074827
:1003100000F05EF8CDF800803B4632462946204684
:1003200000F0B2F800BEFEE700ED00E0F8180008AB
:1003300000BEFEE700BEFEE700BEFEE7704700001D
:100340003F020008B5020008FD02000800BEFEE7FB
:1003500048190008000000209C01002048190008EE
:1003600000000000000000009C010020400500206B
:08037000000000000000000085
:10037800FEE7000008B503460C4A12685AB10B4A5A
:100388001068033323F003030344094A934206D851
:10039800064A136008BD054A06491160EFE700F0F8
:1003A800DBFD0C2303604FF0FF30F3E7A0010020D2
:1003B800004C00204005002001230360014B0B6026
:1003C800704700BF040000200FB400B583B004AB31
:1003D80053F8042B01938021064800F0EFFD002814
:1003E80003DD0146034800F037F803B05DF804EB7D
:1003F80004B07047A80100202DE9F04385B00446F9
:100408000F4643560BB10E461EE0042528462146EA
:10041800ABBE0446384605B0BDE8F08314F9011BAD
:1004280004AA1A4402F8101C0133AB42F6D304AAFA
:100438001344002203F8102C4FF00408E946404604
:100448004946ABBE8046761B002EE3D03546102EBB
:1004580028BF10250023E8E708B5FFF7CDFF08BD42
:1004680008B500F0FDF8024A024B9A6008BD00BFCB
:100478000000000800ED00E008B500F019F908BD1B
:10048800F8B504460D4617461E462748FFF79CFF59
:1004980021682648FFF798FF61682548FFF794FF11
:1004A800A1682448FFF790FFE1682348FFF78CFF15
:1004B80021692248FFF788FF61692148FFF784FF17
:1004C800A1692048FFF780FFE1691F48FFF77CFF1B
:1004D8001E48FFF779FF29461D48FFF775FF1D4C99
:1004E800E16A1D48FFF770FF216B1C48FFF76CFF9E
:1004F800E16B1B48FFF768FF15F0800F0AD115F470
:10050800004F0CD11748FFF75FFF06991648FFF711
:100518005BFFF8BD39461548FFF756FFEFE7314650
:100528001348FFF751FFEDE7C0170008D017000880
:10053800E0170008F0170008001800081018000855
:100548002018000830180008401800085018000843
:100558005C18000800ED00E06C1800087C18000822
:100568008C180008BC180008C41800089C1800085B
:10057800AC18000883691A888A4201D000207047A5
:100588000268033A012A03D80233836101207047C5
:100598000020704782B00023019300932C4A13680F
:1005A80043F4803313602A4B1B6803F40033009331
:1005B800019B01330193009B1BB9019BB3F5A06F0D
:1005C800F1D1234B1B6813F4003F06D0012300939D
:1005D800009B012B04D002B0704700230093F7E77B
:1005E8001C4B1A6842F010021A601A6822F00302C3
:1005F8001A601A6842F002021A60A3F580535A681A
:100608005A605A685A605A6842F480625A605A6856
:1006180022F47C125A605A6842F4E8125A601A6846
:1006280042F080721A600A4B1B6813F0007FFAD000
:10063800074B5A6822F003025A605A6842F00202D5
:100648005A60034B5B6803F00C03082BF9D1C2E72F
:10065800001002400020024008B5FFF79BFF08BDCC
:1006680008B5104B1A6842F001021A6059680E4A20
:100678000A405A601A6822F0847222F480321A60A2
:100688001A6822F480221A605A6822F4FE025A601C
:100698004FF41F029A60FFF7DFFF044B4FF0006230
:1006A8009A6008BD001002400000FFF800ED00E06D
:1006B8001F4B5B6803F00C03042B15D0082B17D0D5
:1006C8001BB11C4B1C4A1A6002E01A4B1A4A1A60EA
:1006D800174B5B68C3F30313184AD35CDAB21549A6
:1006E8000B68D3400B607047124B134A1A60EFE750
:1006F8000F4A53685268C3F38343023312F4803FAE
:100708000AD00B4A526812F4003F0BD00C4A02FB85
:1007180003F3084A1360DBE7094A02FB03F3054ABF
:100728001360D5E7044A02FB03F3024A1360CFE7DC
:10073800001002401C00002000127A000C0000206B
:1007480000093D0010B40A480A4B036000224260C9
:1007580009494FF044340C60084B4B60084B1C604F
:100768005C600F24C460CA60DA6010BC704700BFC8
:100778000008014088884444000C01404444333355
:1007880000100140032807D80F2905D8022816D0E1
:10079800032824D0012800D07047072905D88900EC
:1007A800C9B28A40164B1A6070470839C9B2890025
:1007B800C9B28A4012494B681A434A6070470729F0
:1007C80005D88900C9B28A400E4B1A6070470839AB
:1007D800C9B28900C9B28A400A4B5A6070470729D2
:1007E80008D9A1F10803DBB29B00DBB29A40064BA3
:1007F8005A60D1E78900C9B28A40034B1A60704732
:1008080000080140000C014000100140D0B110B4B4
:1008180004460D4B4FF480525A605A6C22F0010284
:100828005A64094B5B6C13F0010FFAD1064B1C6537
:1008380099644FF480525A605A6C42F001025A642B
:1008480010BC7047704700BF00000240174B5B6C3C
:1008580013F0010F09D0154A536C23F001035364B8
:10086800124B5B6C13F0010FFAD1104B5A6C22F04B
:1008780001025A645A6C42F400525A645A6C42F0AB
:1008880010025A645A6C22F480425A645A6C22F458
:1008980040625A645A6C22F440725A645A6C42F0AC
:1008A80080025A64024ADA64704700BF00000240BE
:1008B80004380140234B9B6D13F0010F09D0214AE6
:1008C800936D23F0010393651E4B9B6D13F0010F8D
:1008D800FAD11C4B5A6842F480325A601A4A1A6696
:1008E8001A4A5A669A6D42F080029A659A6D42F0E9
:1008F80020029A659A6D42F440529A659A6D22F4E4
:1009080040629A659A6D22F440729A659A6D22F057
:1009180010029A659A6D22F480429A659A6D42F0A7
:1009280002029A650A494A6942F040024A618022F5
:10093800DA654FF0000080F310889A6D42F00102EA
:100948009A657047000002400438014038020020D0
:1009580000380140064B1B6813F4005F07D0044BB6
:100968004FF480525A605A6C22F001025A64704760
:1009780000000240124B1B6813F4005F1ED010B435
:100988000F4B4FF470225A60D96DC1F18001C9B282
:100998000C4B1970002306E00B4AD4560B48C4547C
:1009A8000020D05401339942F6D8054B8022DA65ED
:1009B8009A6D42F001029A6510BC7047704700BFFB
:1009C800000002402802002038020020B80400205D
:1009D800044B054A5A6002F188325A6080221A6133
:1009E800704700BF0020024023016745014B802269
:1009F8001A61704700200240034B044A5A6002F112
:100A080088325A60704700BF0020024023016745C2
:100A180000228A422AD230B4154B5D68154C2C430B
:100A28005C605D68144C2C435C601C6924F0010414
:100A38001C611C6944F002041C6158611C6944F083
:100A480042041C610A4BDB6813F0010FFAD100F570
:100A58008060074B1C6924F002041C6100245C615F
:100A68000132D2B28A42D7D330BC7047704700BF38
:100A78000020024023016745AB89EFCD1F2809D923
:100A88003F2806D82038C0B2012303FA00F0044BEF
:100A980018607047012303FA00F0024B1860704792
:100AA80004E100E000E100E03B2804D800F16040E8
:100AB80000F56440017070470B4A136843F48033B3
:100AC8001360094B1B6813F4003FFAD0074B1A68F0
:100AD80042F480321A601A6822F400321A601A68E6
:100AE80042F4E0121A6070470010024004100240FD
:100AF800431EDBB21E2B10D9A0F12003DBB21F2B43
:100B080013D94038C0B21F2806D80C490B680122F7
:100B180002FA00F018430860704709490B6801227F
:100B280002FA00F01843086070470648026801217D
:100B380001FA03F313430360704700BF1C1002401F
:100B48001410024018100240104B40F271229A60B3
:100B5800DA6842F00802DA60DA6842F00402DA6021
:100B68005A6942F040025A615A6942F080025A6159
:100B7800DA6842F01002DA60DA6842F40052DA60A9
:100B8800034A936D43F001039365704700380140B1
:100B98000000024008B5084B1B6813F0100F07D07F
:100BA800054B1A685B68054A936D23F0010393654A
:100BB800FFF7E0FE08BD00BF00380140000002401A
:100BC80008B5194BDB6813F0040F09D1164BDB6825
:100BD80013F0100F16D104211448FFF717FE08BDB3
:100BE80005211348FFF712FE1B211248FFF70EFEDE
:100BF8002F211148FFF70AFE0B4AD36843F004037C
:100C0800D360ECE705210A48FFF700FE17210B48DF
:100C1800FFF7FCFD2F210848FFF7F8FD024AD368CB
:100C280043F01003D360DAE70020024020000020E0
:100C3800240000203C000020A000002058000020D4
:100C480000B583B0002301930093644B93F90030FF
:100C5800013B052B06D8DFE803F003080B485E6765
:100C6800FFF7C4FE03B05DF804FBFFF7C5FEF9E724
:100C78005B4BDB6813F0010FFAD1594B5968594A9D
:100C88000A435A605968584A0A435A601A6922F056
:100C980002021A611A6942F001021A614F4BD3F835
:100CA80001300193002218E04D4B196941F0010110
:100CB8001961510005314948405A0199088019695C
:100CC80021F001011961019B02330193444BDB6858
:100CD80013F0010FFAD10132D2B2072AE4D9404AFF
:100CE800136923F001031361BCE73D4B59683D4A82
:100CF8000A435A6059683C4A0A435A60374BD3F84A
:100D080001300193019B1B6802A840F8083D0421AB
:100D1800FFF77CFDA6E7314BD3F80120019201983B
:100D28005979FFF775FE9DE72C4BD3F801300193F5
:100D3800019B1B68009313F0005F49D04FF001003E
:100D480080F31088294A136823F001031360284BA5
:100D580044F205021A6000221A6002F1804202F58C
:100D68000432136843F001031360224B1B6813F02D
:100D7800020FFAD0204B00221A601F4B1B6813F099
:100D88000C0FFAD11B4A136823F450231360194B34
:100D98001B6813F4003FFAD1164A136823F08073D6
:100DA8001360144B1B6813F0007FFAD10023134A19
:100DB80013600432136004321360019A104B9A4294
:100DC80002D1019B5B689847019B5B68984749E79C
:100DD80005210C48FFF71AFD44E700BFB8040020BE
:100DE8000020024023016745AB89EFCD1410024073
:100DF8000C100240001002400410024010E000E015
:100E080000F0FF1F2400002010B5244B1B7813B1FD
:100E1800012B31D010BD09212148FFF7F7FC24210F
:100E28002048FFF7F3FC204C2F212046FFF7EEFC6B
:100E38000E211E48FFF7EAFC10211D48FFF7E6FCCB
:100E48000E211C48FFF7E2FC0D211B48FFF7DEFCD2
:100E580010211A48FFF7DAFC0F211948FFF7D6FCD2
:100E68002F212046FFF7D2FC1E211648FFF7CEFCA3
:100E78000A4B01221A70CDE7134B1B7833B9074B85
:100E880001221A70114B8022DA65C3E7FFF7D8FEFA
:100E9800FFF796FE0C4B00221A70F0E7290200209B
:100EA80008190008F0000020A0000020D000002051
:100EB8001401002024010020E00000202C00002064
:100EC800900000207000002028020020000002404E
:100ED80008B5FFF7F1FD2220FFF70AFE2020FFF7F3
:100EE80007FE2E20FFF704FE1A4B1A6842F0010293
:100EF8001A601A6842F003021A60FFF723FC0B22FB
:100F080009210120FFF73EFC08220A210120FFF7F2
:100F180039FC0E20FFF7B2FD0F20FFF7AFFD2520AB
:100F2800FFF7ACFD10210E20FFF7BEFD10210F20AA
:100F3800FFF7BAFD10212520FFF7B6FDFFF786FC65
:100F4800FFF7B8FCFFF700FEFFF742FDFFF75CFF75
:100F5800FCE700BF14100240014B1868704700BF3F
:100F68003401002030B5141E05469BB0184605DA3A
:100F78008B234FF0FF302B601BB030BD4FF4027352
:100F8800ADF80C300CBF234604F1FF3302930593F0
:100F98004FF6FF7300910491ADF80E3002461E9B88
:100FA8006946284600F072F8431CBCBF8B232B60AF
:100FB800002CE1D00022009B1A70DDE707B50093F2
:100FC80013460A46014603480068FFF7CBFF03B003
:100FD8005DF804FB340100202DE9F0478E68824655
:100FE8009E420C469046994637D88A8912F4906FEB
:100FF80031D00223256809696F1A656905EB450533
:1010080095FBF3F509F101033B449D4238BF1D46AA
:10101800530530D5294600F035FB064650B90C2358
:101028004FF0FF30CAF80030A38943F04003A38192
:10103800BDE8F0873A46216900F0B4FAA38923F4A1
:10104800906343F08003A38126613E4426604E46A8
:101058006561ED1BA5604E4500D94E4632464146B6
:10106800206800F0AAFAA36800209B1BA3602368ED
:101078001E442660DCE72A4600F05EFB0646002890
:10108800E2D12169504600F0B1FAC8E72DE9F04FE6
:101098009DB003938B8980461D060C4616460FD5D6
:1010A8000B696BB9402100F0EDFA2060206128B986
:1010B8000C23C8F800304FF0FF30C7E040236361CD
:1010C8000023099320238DF8293030234FF0010B9A
:1010D8008DF82A3037463D4615F8013B0BB1252BD4
:1010E8003ED1B7EB060A0BD053463246214640465E
:1010F800FFF772FF013000F0A480099B5344099365
:101108003B78002B00F09D8000234FF0FF32CDE9A3
:101118000523049307938DF853301A932F4605221D
:1011280017F8011B4F4800F02FFA049BD0B9D906D5
:1011380044BF20228DF853201A0744BF2B228DF874
:1011480053202A782A2A15D02F4600200A25079AE4
:10115800394611F8013B303B092B4DD9B8B10FE0A6
:101168002F46B8E73F4A3D46801A0BFA00F018436D
:101178000490D3E7039A111D12680391002A01DB3A
:10118800079204E0524243F00203079204933B782B
:101198002E2B0CD17B782A2B33D1039B02371A1DB7
:1011A8001B680392002BB8BF4FF0FF3305932E4DF9
:1011B80003223978284600F0E7F938B14023401B6C
:1011C80003FA00F0049B013703430493397806229D
:1011D80026487E1C8DF8281000F0D6F9002838D053
:1011E800234B13BB039B073323F0070308330393F5
:1011F800099B4B4409936DE705FB023201200F461A
:10120800A6E700230A25194601370593384610F842
:10121800012B303A092A03D9002BC8D00591C6E71B
:1012280005FB012101230746F0E703AB00932246A3
:10123800104B04A94046AFF30080B0F1FF3F814650
:10124800D6D1A3895B063FF536AF09981DB0BDE836
:10125800F08F03AB00932246064B04A9404600F0EA
:1012680081F8EAE7141900081A1900081E1900087D
:1012780000000000E10F00082DE9F04791461F46E5
:101288008A680B6906469342B8BF1346C9F800300E
:1012980091F843200C46DDF8208012B10133C9F8DB
:1012A80000302368990642BFD9F800300233C9F8E4
:1012B8000030256815F0060507D104F1190AE3681E
:1012C800D9F800209B1AAB4229DC94F843302268F5
:1012D800003318BF012392062ED404F14302394685
:1012E8003046C047013021D02368E56803F0060383
:1012F800042B18BF0025D9F800204FF0000908BFBB
:10130800AD1AA368226908BF25EAE5759342C4BFF0
:101318009B1AED181A344D451AD1002008E0012314
:10132800524639463046C047013003D14FF0FF30AE
:10133800BDE8F0870135C2E73020E11881F84300A5
:101348005A1C94F845102244023382F84310C4E72B
:101358000123224639463046C0470130E6D009F11C
:101368000109D8E72DE9F04301F1430C0C46097E49
:1013780085B06E291746064698460C9A00F0B38049
:1013880022D8632936D00AD8002900F0B980582914
:1013980000F0838004F1420584F8421032E06429A9
:1013A80001D06929F6D120681368050603F1040104
:1013B8002AD51B681160002B03DA2D225B4284F8C2
:1013C80043206F480A2239E0732900F09D8008D82D
:1013D8006F2920D07029DDD1236843F020032360D2
:1013E80003E0752917D07829D4D17823654884F883
:1013F800453055E0136804F14205191D1B6811605A
:1014080084F8423001238CE01B6810F0400F116013
:1014180018BF1BB2CFE713682568181D106028068F
:1014280001D51B6802E06806FBD51B886F2914BF2D
:101438000A2208225248002184F843106568002DCA
:10144800A560C0F29580216821F004012160002B7D
:101458003DD1002D40F08E806546082A0BD12368C7
:10146800DB0708D5236962689A42DEBF302305F896
:10147800013C05F1FF35ACEB05032361CDF8008095
:101488003B4603AA21463046FFF7F6FE01304DD110
:101498004FF0FF3005B0BDE8F083394884F84510B7
:1014A800136821681D1D1B6815600A060BD5CA073D
:1014B80044BF41F0200121601BB9226822F02002BC
:1014C80022601022B7E74D0648BF9BB2EFE765469A
:1014D800B3FBF2F102FB1133C35C05F8013D0B4687
:1014E8000029F5D1B9E713682568181D61691060EE
:1014F80028061B6801D5196002E06A06FBD5198029
:10150800002365462361B9E71368191D11601D683A
:1015180062680021284600F037F808B1401B606077
:1015280063682361002384F84330A7E723692A46C8
:1015380039463046C0470130AAD023689B0713D4E8
:10154800E068039B9842B8BF1846A3E701234A46C0
:1015580039463046C04701309AD00135E368039ACE
:101568009B1AAB42F2DCEBE7002504F11909F5E719
:10157800002BACD1037804F1420584F842306CE7C3
:10158800251900083619000810B5C9B2024490425E
:10159800034601D1002303E01C7801308C42F6D1C8
:1015A800184610BD10B5431E0A44914200D110BD23
:1015B80011F8014B03F8014FF7E7884210B501EB2A
:1015C800020307D8421E99420AD011F8014B02F8CB
:1015D800014FF8E78342F5D98118D21AD34200D1D6
:1015E80010BD13F8014D01F8014DF7E738B5054670
:1015F800002943D051F8043C0C1F002BB8BFE41855
:1016080000F0D0F81E4A1368104633B963601460BE
:101618002846BDE8384000F0C6B8A3420BD9216877
:101628006218934201BF1A685B68521822606360AF
:101638000460EDE713465A680AB1A242FAD919685C
:101648005818A0420BD120680144581882421960EA
:10165800DED110685268014419605A60D8E702D98F
:101668000C232B60D4E7206821188A4201BF116837
:1016780052680918216062605C60C9E738BD00BF24
:101688002C02002070B5CD1C25F0030508350C2D63
:1016980038BF0C25002D064601DBA94203D90C23CF
:1016A8003360002070BD00F07DF8214A146821469F
:1016B80091B9204C23681BB9304600F063F82060CC
:1016C8002946304600F05EF8431C24D10C233046EE
:1016D800336000F068F8E4E70B685B1B18D40B2B49
:1016E8000FD90B60CC18CD50304600F05CF804F1EF
:1016F8000B00231D20F00700C31AD3D05A42E25032
:10170800D0E74B688C4216BF636013600C46EBE76A
:101718000C464968CCE7C41C24F00304A04205D059
:10172800211A304600F02EF80130CFD02560DBE7D3
:101738002C02002030020020F8B5074614460E4659
:1017480021B9BDE8F8401146FFF79CBF22B9FFF761
:101758004DFF25462846F8BD00F026F8A0420FD2D6
:1017680021463846FFF78EFF05460028F2D031465D
:101778002246FFF717FF31463846FFF737FFE9E7FC
:101788003546E7E738B50023054C0546084623608B
:10179800FEF7F0FD431C02D1236803B12B6038BD6E
:1017A800340200207047704751F8043C181F002B82
:1017B800BCBF0B58C0187047537461636B206672C6
:1017C800616D653A0A000000205230203D20202536
:1017D8003038580A00000000205231203D202025D2
:1017E8003038580A00000000205232203D202025C1
:1017F8003038580A00000000205233203D202025B0
:101808003038580A0000000020523132203D20258F
:101818003038580A00000000204C52203D20202576
:101828003038580A00000000205043203D20202571
:101838003038580A0000000020505352203D20251F
:101848003038580A000000004653522F4641523A99
:101858000A0000002043465352203D2020253038FE
:10186800580A00002048465352203D202025303891
:10187800580A00002044465352203D202025303885
:10188800580A00002041465352203D202025303878
:10189800580A0000204D4D464152203D2025303841
:1018A800580A00002042464152203D202025303869
:1018B800580A00004D6973630A000000204C522F3B
:1018C8004558435F52455455524E3D2025303858AF
:1018D8000A0000005B486172644661756C745D0AB9
:1018E800000000005B4275734661756C745D0A0008
:1018F8005B55736167654661756C745D0A0000002D
:10190800454C53686174657200000000232D302B2C
:101918002000686C4C0065666745464700303132E8
:10192800333435363738394142434445460030313F
:0F1938003233343536373839616263646566009F
:1019480078563412A40100200000000000000000B6
:1019580000000000010203040607080900A24A0467
:1019680041434B004E41434B00FFFFFF353A2053A4
:101978006563746F722045726173650050726F679A
:1019880072616D6D696E672073657175656E6365EB
:10199800206572726F7200FF5772697465207072E9
:1019A8006F74656374696F6E206572726F7200FF81
:1019B80057656C636F6D6520746F20466C61736842
:1019C80020436F6E74726F6C6C6572202100FFFF8C
:1019D800363A20446972656374204A756D7000FF59
:1019E8002A2A2A2A2A2A2A2A2A2A2A2A2A2A2A2A4F
:1019F8002A2A2A2A2A2A2A2A2A2A2A2A2A2A2A2A3F
:101A08002A2A2A2A2A2A2A2A2A2A2A2A2A2A00FF83
:101A1800313A20466C617368204C6F636B00FFFF9E
:101A2800343A2052656164204461746100FFFFFF0D
:101A380053656C65637420636F6D6D616E642066B9
:101A4800726F6D2074686520666F6C6C6F77696E55
:101A5800673A2000323A20466C61736820556E6CF4
:101A68006F636B00333A2057726974652044617460
:101A78006100FFFF380100200000000000000000A6
:101A8800000000000000000000000000000000004E
:101A9800000000000000000000000000000000003E
:101AA800000000000000000000000000000000002E
:101AB800000000000000000000000000000000001E
:101AC800000000000000000000000000000000000E
:0C1AD8000000000000000000325476986E
:040000050800010DE1
:00000001FF
